{
    "_format": "hh-sol-artifact-1",
    "contractName": "DataVault",
    "sourceName": "contracts/DataVault.sol",
    "abi": [
        {
            "anonymous": false,
            "inputs": [
                {
                    "indexed": true,
                    "internalType": "bytes32",
                    "name": "fileId",
                    "type": "bytes32"
                },
                {
                    "indexed": true,
                    "internalType": "address",
                    "name": "receiver",
                    "type": "address"
                },
                {
                    "indexed": false,
                    "internalType": "string",
                    "name": "encryptedKey",
                    "type": "string"
                }
            ],
            "name": "AccessGranted",
            "type": "event"
        },
        {
            "anonymous": false,
            "inputs": [
                {
                    "indexed": true,
                    "internalType": "bytes32",
                    "name": "fileId",
                    "type": "bytes32"
                },
                {
                    "indexed": true,
                    "internalType": "address",
                    "name": "receiver",
                    "type": "address"
                }
            ],
            "name": "AccessRevoked",
            "type": "event"
        },
        {
            "anonymous": false,
            "inputs": [
                {
                    "indexed": true,
                    "internalType": "bytes32",
                    "name": "fileId",
                    "type": "bytes32"
                },
                {
                    "indexed": true,
                    "internalType": "address",
                    "name": "receiver",
                    "type": "address"
                },
                {
                    "indexed": false,
                    "internalType": "uint256",
                    "name": "timestamp",
                    "type": "uint256"
                }
            ],
            "name": "Accessed",
            "type": "event"
        },
        {
            "anonymous": false,
            "inputs": [
                {
                    "indexed": true,
                    "internalType": "bytes32",
                    "name": "fileId",
                    "type": "bytes32"
                },
                {
                    "indexed": true,
                    "internalType": "address",
                    "name": "owner",
                    "type": "address"
                },
                {
                    "indexed": false,
                    "internalType": "string",
                    "name": "ipfsHash",
                    "type": "string"
                },
                {
                    "indexed": false,
                    "internalType": "string",
                    "name": "metaCid",
                    "type": "string"
                }
            ],
            "name": "FileRegistered",
            "type": "event"
        },
        {
            "inputs": [
                {
                    "internalType": "bytes32",
                    "name": "fileId",
                    "type": "bytes32"
                },
                {
                    "internalType": "address",
                    "name": "user",
                    "type": "address"
                }
            ],
            "name": "checkAccess",
            "outputs": [
                {
                    "internalType": "bool",
                    "name": "",
                    "type": "bool"
                }
            ],
            "stateMutability": "view",
            "type": "function"
        },
        {
            "inputs": [
                {
                    "internalType": "bytes32",
                    "name": "fileId",
                    "type": "bytes32"
                },
                {
                    "internalType": "uint256",
                    "name": "start",
                    "type": "uint256"
                },
                {
                    "internalType": "uint256",
                    "name": "limit",
                    "type": "uint256"
                }
            ],
            "name": "getAccessHistory",
            "outputs": [
                {
                    "internalType": "address[]",
                    "name": "accessors",
                    "type": "address[]"
                },
                {
                    "internalType": "uint256[]",
                    "name": "timestamps",
                    "type": "uint256[]"
                }
            ],
            "stateMutability": "view",
            "type": "function"
        },
        {
            "inputs": [
                {
                    "internalType": "bytes32",
                    "name": "fileId",
                    "type": "bytes32"
                }
            ],
            "name": "getAccessHistoryLength",
            "outputs": [
                {
                    "internalType": "uint256",
                    "name": "",
                    "type": "uint256"
                }
            ],
            "stateMutability": "view",
            "type": "function"
        },
        {
            "inputs": [
                {
                    "internalType": "bytes32",
                    "name": "fileId",
                    "type": "bytes32"
                },
                {
                    "internalType": "address",
                    "name": "requester",
                    "type": "address"
                }
            ],
            "name": "getEncryptedKey",
            "outputs": [
                {
                    "internalType": "string",
                    "name": "",
                    "type": "string"
                }
            ],
            "stateMutability": "view",
            "type": "function"
        },
        {
            "inputs": [
                {
                    "internalType": "bytes32",
                    "name": "fileId",
                    "type": "bytes32"
                }
            ],
            "name": "getFile",
            "outputs": [
                {
                    "internalType": "string",
                    "name": "",
                    "type": "string"
                }
            ],
            "stateMutability": "nonpayable",
            "type": "function"
        },
        {
            "inputs": [
                {
                    "internalType": "address",
                    "name": "owner",
                    "type": "address"
                },
                {
                    "internalType": "uint256",
                    "name": "start",
                    "type": "uint256"
                },
                {
                    "internalType": "uint256",
                    "name": "limit",
                    "type": "uint256"
                }
            ],
            "name": "getFilesByOwner",
            "outputs": [
                {
                    "internalType": "bytes32[]",
                    "name": "fileIds",
                    "type": "bytes32[]"
                },
                {
                    "internalType": "string[]",
                    "name": "ipfsHashes",
                    "type": "string[]"
                },
                {
                    "internalType": "string[]",
                    "name": "metaCids",
                    "type": "string[]"
                },
                {
                    "internalType": "uint256[]",
                    "name": "createdAts",
                    "type": "uint256[]"
                }
            ],
            "stateMutability": "view",
            "type": "function"
        },
        {
            "inputs": [
                {
                    "internalType": "bytes32",
                    "name": "fileId",
                    "type": "bytes32"
                },
                {
                    "internalType": "address",
                    "name": "receiver",
                    "type": "address"
                },
                {
                    "internalType": "string",
                    "name": "encryptedKey",
                    "type": "string"
                }
            ],
            "name": "grantAccess",
            "outputs": [],
            "stateMutability": "nonpayable",
            "type": "function"
        },
        {
            "inputs": [
                {
                    "internalType": "bytes32",
                    "name": "fileId",
                    "type": "bytes32"
                },
                {
                    "internalType": "string",
                    "name": "ipfsHash",
                    "type": "string"
                },
                {
                    "internalType": "string",
                    "name": "metaCid",
                    "type": "string"
                }
            ],
            "name": "registerFile",
            "outputs": [],
            "stateMutability": "nonpayable",
            "type": "function"
        },
        {
            "inputs": [
                {
                    "internalType": "bytes32",
                    "name": "fileId",
                    "type": "bytes32"
                },
                {
                    "internalType": "address",
                    "name": "receiver",
                    "type": "address"
                }
            ],
            "name": "revokeAccess",
            "outputs": [],
            "stateMutability": "nonpayable",
            "type": "function"
        }
    ],
    "bytecode": "0x60806040523461001a57604051611490610020823961149090f35b600080fdfe6080604052600436101561001257600080fd5b60003560e01c80630e169119146100a25780633e1fd0da1461009d578063473aa2a514610098578063759270cd146100935780637bbc67d71461008e5780638d53b208146100895780639a0a119614610084578063a5afabf71461007f5763f8469ff6036100a7576105ab565b610529565b6104f7565b6103c5565b6103a9565b61037a565b610257565b6101a9565b61015d565b600080fd5b805b036100a757565b905035906100c2826100ac565b565b6001600160a01b031690565b90565b6100ae816100c4565b905035906100c2826100d3565b909182601f830112156100a7578135916001600160401b0383116100a75760200192600183028401116100a757565b916060838303126100a75761012d82846100b5565b9261013b83602083016100dc565b9260408201356001600160401b0381116100a75761015992016100e9565b9091565b346100a757610179610170366004610118565b92919091610ad6565b604051005b0390f35b91906040838203126100a7576100d09061019c81856100b5565b936020016100dc565b9052565b346100a75761017e6101c56101bf366004610182565b90610e21565b60405191829182901515815260200190565b906020828203126100a7576100d0916100b5565b60005b8381106101fe5750506000910152565b81810151838201526020016101ee565b61022f61023860209361024293610223815190565b80835293849260200190565b958691016101eb565b601f01601f191690565b0190565b60208082526100d09291019061020e565b346100a75761017e61027261026d3660046101d7565b611026565b60405191829182610246565b90916060828403126100a7576100d061029784846100b5565b936102a581602086016100b5565b936040016100b5565b6101a5906100c4565b90610242816020936102ae565b906102e46102dd6102d3845190565b8084529260200190565b9260200190565b9060005b8181106102f55750505090565b90919261030f61030860019286516102b7565b9460200190565b9291016102e8565b906103266102dd6102d3845190565b9060005b8181106103375750505090565b90919261034d6103086001928651815260200190565b92910161032a565b60408082526100d093919261036c918401906102c4565b916020818403910152610317565b346100a75761039361038d36600461027e565b91611375565b9061017e6103a060405190565b92839283610355565b346100a75761017e6102726103bf366004610182565b906110c0565b346100a7576101796103d8366004610182565b90610d7d565b90916060828403126100a7576100d061029784846100dc565b906104066102dd6102d3845190565b9060005b8181106104175750505090565b90919261042d6103086001928651815260200190565b92910161040a565b906100d09161020e565b9061045561044b835190565b8083529160200190565b90816104676020830284019460200190565b926000915b83831061047b57505050505090565b9091929394602061049e61049783856001950387528951610435565b9760200190565b930193019193929061046c565b926104db6100d095936104cd6104e994608088019088820360008a01526103f7565b90868203602088015261043f565b90848203604086015261043f565b916060818403910152610317565b346100a75761017e61051361050d3660046103de565b916111ec565b9061052094929460405190565b948594856104ab565b346100a75761017e61054461053f3660046101d7565b61135a565b6040515b9182918290815260200190565b6060818303126100a75761056982826100b5565b9260208201356001600160401b0381116100a757836105899184016100e9565b909390929060408201356001600160401b0381116100a75761015992016100e9565b346100a7576101796105be366004610555565b93929092610992565b905b600052602052604060002090565b6100d090546100c4565b6100c46100d06100d09290565b6100d0906105e1565b156105fe57565b60405162461bcd60e51b815260206004820152601360248201527246696c6520616c72656164792065786973747360681b6044820152606490fd5b634e487b7160e01b600052600060045260246000fd5b634e487b7160e01b600052604160045260246000fd5b634e487b7160e01b600052602260045260246000fd5b906001600283049216801561069b575b602083101461069657565b610665565b91607f169161068b565b9160001960089290920291821b911b5b9181191691161790565b6100d06100d06100d09290565b91906106dd6100d06106e5936106bf565b9083546106a5565b9055565b6100c2916000916106cc565b818110610700575050565b8061070e60006001936106e9565b016106f5565b9190601f811161072357505050565b6107356100c293600052602060002090565b906020601f840181900483019310610758575b6020601f909101045b01906106f5565b9091508190610748565b9060001960089091021c191690565b8161077b91610762565b906002021790565b91906001600160401b038211610840576107a7826107a1855461067b565b85610714565b600090601f83116001146107d5576106e59291600091836107ca575b5050610771565b0135905038806107c3565b601f198316916107ea85600052602060002090565b92815b8181106108285750916002939185600196941061080e575b50505002019055565b61081e910135601f841690610762565b9055388080610805565b919360206001819287870135815501950192016107ed565b61064f565b906100c29291610783565b906001600160a01b03906106b5565b6100d0906100c4906001600160a01b031682565b6100d09061085f565b6100d090610873565b906108956100d06106e59261087c565b8254610850565b90600019906106b5565b906108b66100d06106e5926106bf565b825461089c565b906105c99061087c565b634e487b7160e01b600052603260045260246000fd5b8054821015610900576108f7600191600052602060002090565b91020190600090565b6108c7565b91906106dd6100d06106e59390565b80549190600160401b83101561084057826109379160016100c2950181556108dd565b90610905565b90826000939282370152565b919061023881610960816102429560209181520190565b809561093d565b9290610984906100d0959360408601918683036000880152610949565b926020818503910152610949565b9190939293610a68600094610a0d6109ad6100d087896105c7565b6109ea8686600284019a6109e36109c38d6105d7565b6109dd6109d76109d2856105ee565b6100c4565b916100c4565b146105f7565b8401610845565b6109f8838a60018401610845565b610a03338099610885565b60034291016108a6565b610a2485610a1f6100d08960036108bd565b610914565b610a55610a4f7faa0f2661e64967e77af4a43c2aecca8209a9f6c68944c4243f95461fadab82959690565b9661087c565b96610a5f60405190565b94859485610967565b0390a3565b15610a7457565b60405162461bcd60e51b81526020600482015260096024820152682737ba1037bbb732b960b91b6044820152606490fd5b9060ff906106b5565b90610abe6100d06106e592151590565b8254610aa5565b60208082526100d093910191610949565b909192610b07610af56002610aef6100d08660006105c7565b016105d7565b610b016109d7336100c4565b14610a6d565b610b246001610b1f85610b1a86846105c7565b6108bd565b610aae565b610b3d8185610b3886610b1a8760026105c7565b610845565b610b6e610b687fa267c14363a987bca73845fc933d871e1e10068bd40c641db12b39c45d3a87fe9390565b9361087c565b93610a68610b7b60405190565b92839283610ac5565b15610b8b57565b60405162461bcd60e51b81526020600482015260126024820152711058d8d95cdcc81b9bdd0819dc985b9d195960721b6044820152606490fd5b90610bd890600019906020036008021c90565b8154169055565b90600091610bfd610bf582600052602060002090565b928354610771565b905555565b9192906020821015610c5a57601f8411600114610c24576106e5929350610771565b5090610c556100c2936001610c4c610c4185600052602060002090565b92601f602091010490565b820191016106f5565b610bdf565b50610c938293610c71600194600052602060002090565b6107516020601f860104820192601f861680610c9b575b50601f602091010490565b600202179055565b610ca790888603610bc5565b38610c88565b929091600160401b82116108405760201115610cf4576020811015610cd5576106e591610771565b60019160ff1916610ceb84600052602060002090565b55600202019055565b60019150600202019055565b908154610d0c8161067b565b90818311610d35575b818310610d23575b50505050565b610d2c93610c02565b38808080610d1d565b610d4183838387610cad565b610d15565b634e487b7160e01b600052601160045260246000fd5b60006100c291610d00565b90600003610d78576100c290610d5c565b610639565b90610ddf6000610d98610af56002610aef6100d088866105c7565b610dcb81610b1f85610b1a886001610dc6610dc1610dba86610b1a86866105c7565b5460ff1690565b610b84565b6105c7565b610dda83610b1a8660026105c7565b610d67565b610e10610e0a7fe7906b77ea165c70ad8268ce5b59b778a198edf9c1ae4118378eefdc76fce5f49390565b9161087c565b91610e1a60405190565b8080610a68565b610e346002610aef6100d08460006105c7565b610e406109d7846100c4565b14610e57576100d091610b1a610dba9260016105c7565b5050600190565b15610e6557565b60405162461bcd60e51b815260206004820152600d60248201526c1058d8d95cdcc819195b9a5959609a1b6044820152606490fd5b90601f01601f191681019081106001600160401b0382111761084057604052565b906100c2610ec860405190565b9283610e9a565b6100d06040610ebb565b906101a5906100c4565b8054821015610900576108f7600291600052602060002090565b6100d090516100c4565b6100c29190610f3090602090600190610f2981610f2387610efd565b90610885565b0192015190565b906108a6565b9190610d78576100c291610f07565b80549190600160401b8310156108405782610f689160016100c295018155610ee3565b90610f36565b80546000939291610f8b610f818361067b565b8085529360200190565b9160018116908115610fdd5750600114610fa457505050565b610fb79192939450600052602060002090565b916000925b818410610fc95750500190565b805484840152602090930192600101610fbc565b92949550505060ff1916825215156020020190565b906100d091610f6e565b906100c26110169261100d60405190565b93848092610ff2565b0383610e9a565b6100d090610ffc565b6100d0903361103d6110388284610e21565b610e5e565b61104b6100d08360046105c7565b906110744292611059610ecf565b906110648483610ed9565b61106f856020840152565b610f45565b7fdcede8f51a5bf4c496677e29d7c49b7849025b86474ded6af867784f9ff0330d6110ab6110a185610b68565b9361054860405190565b0390a36110ba600091826105c7565b0161101d565b6100d091610b1a6110e8926110d3606090565b506110e16110383383610e21565b60026105c7565b61101d565b6001600160401b0381116108405760208091020190565b90611116611111836110ed565b610ebb565b918252565b369037565b906100c261113661113084611104565b936110ed565b601f19016020840161111b565b60005b82811061115257505050565b606082820152602001611146565b906100c261117061113084611104565b601f190160208401611143565b9190820180921161118a57565b610d46565b9190820391821161118a57565b600019811461118a5760010190565b6100d0916008021c81565b906100d091546111ab565b906111ca825190565b811015610900576020809102010190565b6100d09081565b6100d090546111db565b6111fb6100d0600392836108bd565b92611204845490565b908184101561131f5761122b9161121c85928361117d565b90808211611317575b5061118f565b9261123584611120565b9061123f85611160565b9561124986611160565b9161125387611120565b95600092611260846106bf565b8a8a5b82101561130857816112fc8b6112c8836112f68e8e6112ef8f9a8f9b8f8f6113019d6112639f6112d2906112cb6112b16112ab6112e2976112a58b809961117d565b906108dd565b906111b6565b6112c8866112c26100d084876105c7565b9c6111c1565b52565b880161101d565b6112dc83836111c1565b526111c1565b506112d26001850161101d565b50016111e2565b926111c1565b61119c565b9050611260565b50509550505050935093929190565b905038611225565b505050505061132e60006106bf565b61133781611120565b61134082611160565b9261135361134d84611160565b93611120565b9193929190565b6113716100d091611369600090565b5060046105c7565b5490565b6100d061138791939293611369606090565b90611390825490565b9081841015611439576113a89161121c85928361117d565b916113b283611120565b6113bb84611120565b946000906113c8826106bf565b865b81101561142e57611427816114086113f9866113f26113ec6113ca978c61117d565b8c610ee3565b50016105d7565b61140383896111c1565b610ed9565b6112fc61141d60016112ef6113ec858c61117d565b6112c8838d6111c1565b90506113c8565b509450509150509190565b5050505061144760006106bf565b906100d061145483611120565b9261112056fea2646970667358221220e77bea1aaa6d0fbd92f0297db984214d792b08b2a4d9d2556e4547f161ace94664736f6c63430008140033",
    "linkReferences": {},
    "deployedLinkReferences": {}
}