{
  "_format": "hh-sol-artifact-1",
  "contractName": "PostRegistry",
  "sourceName": "contracts/PostRegistry.sol",
  "abi": [
    {
      "inputs": [
        {
          "internalType": "address",
          "name": "dataVaultAddress",
          "type": "address"
        }
      ],
      "stateMutability": "nonpayable",
      "type": "constructor"
    },
    {
      "anonymous": false,
      "inputs": [
        {
          "indexed": true,
          "internalType": "address",
          "name": "creator",
          "type": "address"
        },
        {
          "indexed": false,
          "internalType": "uint256",
          "name": "price",
          "type": "uint256"
        },
        {
          "indexed": false,
          "internalType": "uint32",
          "name": "duration",
          "type": "uint32"
        }
      ],
      "name": "CreatorUpdated",
      "type": "event"
    },
    {
      "anonymous": false,
      "inputs": [
        {
          "indexed": true,
          "internalType": "address",
          "name": "creator",
          "type": "address"
        },
        {
          "indexed": true,
          "internalType": "address",
          "name": "subscriber",
          "type": "address"
        },
        {
          "indexed": false,
          "internalType": "uint256",
          "name": "expiresAt",
          "type": "uint256"
        }
      ],
      "name": "NewSubscription",
      "type": "event"
    },
    {
      "anonymous": false,
      "inputs": [
        {
          "indexed": true,
          "internalType": "uint256",
          "name": "postId",
          "type": "uint256"
        },
        {
          "indexed": true,
          "internalType": "address",
          "name": "owner",
          "type": "address"
        },
        {
          "indexed": false,
          "internalType": "bytes32",
          "name": "fileId",
          "type": "bytes32"
        },
        {
          "indexed": false,
          "internalType": "uint256",
          "name": "price",
          "type": "uint256"
        },
        {
          "indexed": false,
          "internalType": "bool",
          "name": "isPublic",
          "type": "bool"
        },
        {
          "indexed": false,
          "internalType": "uint64",
          "name": "createdAt",
          "type": "uint64"
        }
      ],
      "name": "PostCreated",
      "type": "event"
    },
    {
      "anonymous": false,
      "inputs": [
        {
          "indexed": true,
          "internalType": "uint256",
          "name": "postId",
          "type": "uint256"
        },
        {
          "indexed": true,
          "internalType": "address",
          "name": "owner",
          "type": "address"
        },
        {
          "indexed": false,
          "internalType": "bytes32",
          "name": "fileId",
          "type": "bytes32"
        },
        {
          "indexed": false,
          "internalType": "uint64",
          "name": "updatedAt",
          "type": "uint64"
        }
      ],
      "name": "PostUpdated",
      "type": "event"
    },
    {
      "inputs": [
        {
          "internalType": "uint256",
          "name": "postId",
          "type": "uint256"
        },
        {
          "internalType": "address",
          "name": "user",
          "type": "address"
        }
      ],
      "name": "canUserAccessPost",
      "outputs": [
        {
          "internalType": "bool",
          "name": "",
          "type": "bool"
        }
      ],
      "stateMutability": "view",
      "type": "function"
    },
    {
      "inputs": [
        {
          "internalType": "bytes32",
          "name": "fileId",
          "type": "bytes32"
        },
        {
          "internalType": "string",
          "name": "description",
          "type": "string"
        },
        {
          "internalType": "uint256",
          "name": "price",
          "type": "uint256"
        },
        {
          "internalType": "bool",
          "name": "isPublic",
          "type": "bool"
        }
      ],
      "name": "createPost",
      "outputs": [
        {
          "internalType": "uint256",
          "name": "",
          "type": "uint256"
        }
      ],
      "stateMutability": "nonpayable",
      "type": "function"
    },
    {
      "inputs": [
        {
          "internalType": "address",
          "name": "",
          "type": "address"
        }
      ],
      "name": "creators",
      "outputs": [
        {
          "internalType": "uint256",
          "name": "subscriptionPrice",
          "type": "uint256"
        },
        {
          "internalType": "uint32",
          "name": "subscriptionDuration",
          "type": "uint32"
        }
      ],
      "stateMutability": "view",
      "type": "function"
    },
    {
      "inputs": [],
      "name": "dataVault",
      "outputs": [
        {
          "internalType": "contract IDataVault",
          "name": "",
          "type": "address"
        }
      ],
      "stateMutability": "view",
      "type": "function"
    },
    {
      "inputs": [
        {
          "internalType": "uint256",
          "name": "postId",
          "type": "uint256"
        }
      ],
      "name": "getPost",
      "outputs": [
        {
          "components": [
            {
              "internalType": "address",
              "name": "owner",
              "type": "address"
            },
            {
              "internalType": "string",
              "name": "description",
              "type": "string"
            },
            {
              "internalType": "bytes32",
              "name": "fileId",
              "type": "bytes32"
            },
            {
              "internalType": "uint256",
              "name": "price",
              "type": "uint256"
            },
            {
              "internalType": "bool",
              "name": "isPublic",
              "type": "bool"
            },
            {
              "internalType": "uint64",
              "name": "createdAt",
              "type": "uint64"
            },
            {
              "internalType": "uint64",
              "name": "updatedAt",
              "type": "uint64"
            },
            {
              "internalType": "bool",
              "name": "exists",
              "type": "bool"
            }
          ],
          "internalType": "struct PostRegistry.Post",
          "name": "",
          "type": "tuple"
        }
      ],
      "stateMutability": "view",
      "type": "function"
    },
    {
      "inputs": [
        {
          "internalType": "address",
          "name": "creator",
          "type": "address"
        },
        {
          "internalType": "address",
          "name": "user",
          "type": "address"
        }
      ],
      "name": "isSubscribed",
      "outputs": [
        {
          "internalType": "bool",
          "name": "",
          "type": "bool"
        }
      ],
      "stateMutability": "view",
      "type": "function"
    },
    {
      "inputs": [],
      "name": "nextPostId",
      "outputs": [
        {
          "internalType": "uint256",
          "name": "",
          "type": "uint256"
        }
      ],
      "stateMutability": "view",
      "type": "function"
    },
    {
      "inputs": [
        {
          "internalType": "uint256",
          "name": "",
          "type": "uint256"
        }
      ],
      "name": "posts",
      "outputs": [
        {
          "internalType": "address",
          "name": "owner",
          "type": "address"
        },
        {
          "internalType": "string",
          "name": "description",
          "type": "string"
        },
        {
          "internalType": "bytes32",
          "name": "fileId",
          "type": "bytes32"
        },
        {
          "internalType": "uint256",
          "name": "price",
          "type": "uint256"
        },
        {
          "internalType": "bool",
          "name": "isPublic",
          "type": "bool"
        },
        {
          "internalType": "uint64",
          "name": "createdAt",
          "type": "uint64"
        },
        {
          "internalType": "uint64",
          "name": "updatedAt",
          "type": "uint64"
        },
        {
          "internalType": "bool",
          "name": "exists",
          "type": "bool"
        }
      ],
      "stateMutability": "view",
      "type": "function"
    },
    {
      "inputs": [
        {
          "internalType": "uint256",
          "name": "price",
          "type": "uint256"
        },
        {
          "internalType": "uint32",
          "name": "duration",
          "type": "uint32"
        }
      ],
      "name": "setSubscriptionDetails",
      "outputs": [],
      "stateMutability": "nonpayable",
      "type": "function"
    },
    {
      "inputs": [
        {
          "internalType": "address",
          "name": "creator",
          "type": "address"
        }
      ],
      "name": "subscribe",
      "outputs": [],
      "stateMutability": "payable",
      "type": "function"
    },
    {
      "inputs": [
        {
          "internalType": "address",
          "name": "",
          "type": "address"
        },
        {
          "internalType": "address",
          "name": "",
          "type": "address"
        }
      ],
      "name": "subscriptions",
      "outputs": [
        {
          "internalType": "uint256",
          "name": "",
          "type": "uint256"
        }
      ],
      "stateMutability": "view",
      "type": "function"
    },
    {
      "inputs": [
        {
          "internalType": "uint256",
          "name": "postId",
          "type": "uint256"
        },
        {
          "internalType": "bytes32",
          "name": "newFileId",
          "type": "bytes32"
        }
      ],
      "name": "updatePostContent",
      "outputs": [],
      "stateMutability": "nonpayable",
      "type": "function"
    }
  ],
  "bytecode": "0x60806040523462000030576200001e62000018620000d4565b62000157565b6040516116456200016f823961164590f35b600080fd5b634e487b7160e01b600052604160045260246000fd5b90601f01601f191681019081106001600160401b038211176200006d57604052565b62000035565b906200008a6200008260405190565b92836200004b565b565b6001600160a01b031690565b90565b620000a6816200008c565b036200003057565b905051906200008a826200009b565b9060208282031262000030576200009891620000ae565b62000098620017b480380380620000eb8162000073565b928339810190620000bd565b62000098906200008c906001600160a01b031682565b6200009890620000f7565b62000098906200010d565b906200013762000098620001539262000118565b82546001600160a01b0319166001600160a01b03919091161790565b9055565b620001666200008a9162000118565b60016200012356fe6080604052600436101561001257600080fd5b60003560e01c80630b1e7f83146100d257806337695715146100cd57806340731c24146100c857806341a7726a146100c357806355ddb5f7146100be5780635c09bd98146100b95780636207d31b146100b45780636bdc7727146100af578063933166e1146100aa5780639af9226d146100a5578063b4eb1964146100a05763f6416ef6036100d7576108d4565b6108ad565b610842565b6107e9565b610797565b610758565b6106cb565b610686565b610632565b6105e1565b610514565b610443565b600080fd5b805b036100d757565b905035906100f2826100dc565b565b906020828203126100d757610108916100e5565b90565b6101086101086101089290565b906101229061010b565b600052602052604060002090565b610108905b6001600160a01b031690565b6101089054610130565b634e487b7160e01b600052602260045260246000fd5b9060016002830492168015610181575b602083101461017c57565b61014b565b91607f1691610171565b805460009392916101a861019e83610161565b8085529360200190565b91600181169081156101fa57506001146101c157505050565b6101d49192939450600052602060002090565b916000925b8184106101e65750500190565b8054848401526020909301926001016101d9565b92949550505060ff1916825215156020020190565b906101089161018b565b634e487b7160e01b600052604160045260246000fd5b90601f01601f191681019081106001600160401b0382111761025057604052565b610219565b906100f261026f9261026660405190565b9384809261020f565b038361022f565b6101089081565b6101089054610276565b610108905b60ff1690565b6101089054610287565b6001600160401b031690565b6101089060081c61029c565b61029c565b61010890546102a8565b6101089060481c61029c565b61010890546102c3565b6101089060881c61028c565b61010890546102d9565b6102fa906002610118565b9061030482610141565b9161031160018201610255565b9161031e6002830161027d565b9161032b6003820161027d565b9161033860048301610292565b91610345600482016102b9565b9161010860046103568185016102cf565b93016102e5565b61036690610135565b9052565b60005b83811061037d5750506000910152565b818101518382015260200161036d565b6103ae6103b76020936103c1936103a2815190565b80835293849260200190565b9586910161036a565b601f01601f191690565b0190565b6103669061029c565b939561042760e09661041e61043b969c9b9961041761040f8a6100f29e996104026104319a6000610100850194019061035d565b8c820360208e015261038d565b9e60408b0152565b6060890152565b15156080870152565b60a08501906103c5565b60c08301906103c5565b019015159052565b346100d75761047a61045e6104593660046100f4565b6102ef565b9461047198969894919493929360405190565b988998896103ce565b0390f35b909182601f830112156100d7578135916001600160401b0383116100d75760200192600183028401116100d757565b8015156100de565b905035906100f2826104ad565b916080838303126100d7576104d782846100e5565b926020810135916001600160401b0383116100d7576104fb8461010894840161047e565b93909461050b81604086016100e5565b936060016104b5565b346100d75761047a61053361052a3660046104c2565b9392909261112d565b6040515b9182918290815260200190565b906101089060e08061057861010084016105666000880151600087019061035d565b6020870151858203602087015261038d565b9461058860408201516040860152565b61059760608201516060860152565b6080818101511515908501526105b560a082015160a08601906103c5565b6105c760c082015160c08601906103c5565b01511515910152565b602080825261010892910190610544565b346100d75761047a6105fc6105f73660046100f4565b6114a1565b604051918291826105d0565b6100de81610135565b905035906100f282610608565b906020828203126100d75761010891610611565b61064561064036600461061e565b610be8565b604051005b63ffffffff81166100de565b905035906100f28261064a565b91906040838203126100d7576101089061067d81856100e5565b93602001610656565b346100d757610645610699366004610663565b906109ad565b60009103126100d757565b610108916008021c81565b9061010891546106aa565b6101086000806106b5565b346100d7576106db36600461069f565b61047a6105336106c0565b91906040838203126100d757610108906107008185610611565b93602001610611565b61010890610135906001600160a01b031682565b61010890610709565b6101089061071d565b9061012290610726565b6107536101089261074e60049360009461072f565b61072f565b6106b5565b346100d75761047a61053361076e3660046106e6565b90610739565b91906040838203126100d7576101089061078e81856100e5565b936020016100e5565b346100d7576106456107aa366004610774565b90611395565b610108905b63ffffffff1690565b61010890546107b0565b6107d390600361072f565b9061010860016107e28461027d565b93016107be565b346100d7576108016107fc36600461061e565b6107c8565b9061047a61080e60405190565b9283928390815263ffffffff909116602082015260400190565b91906040838203126100d7576101089061070081856100e5565b346100d75761047a61085e610858366004610828565b90611500565b60405191829182901515815260200190565b610108916008021c610135565b906101089154610870565b6101086000600161087d565b61036690610726565b6020810192916100f29190610894565b346100d7576108bd36600461069f565b61047a6108c8610888565b6040519182918261089d565b346100d75761047a61085e6108ea3660046106e6565b90610d14565b906100f26108fd60405190565b928361022f565b61010860406108f0565b90600019905b9181191691161790565b9061092e6101086109359261010b565b825461090e565b9055565b9063ffffffff90610914565b6107b56101086101089263ffffffff1690565b9061096861010861093592610945565b8254610939565b6100f2919061099d906020906001906109908161098a875190565b9061091e565b0192015163ffffffff1690565b90610958565b906100f29161096f565b906109b6610904565b906109bf838352565b63ffffffff811660208301526109e16003926109dc33809561072f565b6109a3565b610a0b7f9a33df247890922ff8d64909248cdfb1b0208a39260bc945fb190c8214d2a36c92610726565b92610a1861080e60405190565b0390a2565b906100f2610a456001610a2e610904565b94610a3f610a3b8261027d565b8752565b016107be565b63ffffffff166020840152565b61010890610a1d565b15610a6257565b60405162461bcd60e51b815260206004820152602960248201527f546869732063726561746f7220646f6573206e6f74206f6666657220737562736044820152686372697074696f6e7360b81b6064820152608490fd5b15610ac057565b60405162461bcd60e51b815260206004820152601f60248201527f496e636f727265637420737562736372697074696f6e206665652070616964006044820152606490fd5b6101086101086101089263ffffffff1690565b634e487b7160e01b600052601160045260246000fd5b91908201809211610b3b57565b610b18565b6001600160401b03811161025057602090601f01601f19160190565b90610b6e610b6983610b40565b6108f0565b918252565b3d15610b8d57610b823d610b5c565b903d6000602084013e565b606090565b15610b9957565b60405162461bcd60e51b815260206004820152602160248201527f4661696c656420746f2073656e64207061796d656e7420746f2063726561746f6044820152603960f91b6064820152608490fd5b610c6081610cb6610c23610c05610c0084600361072f565b610a52565b8051906000928392610c1d610c198561010b565b9190565b11610a5b565b610c9f3491610c3f610c386101088684015190565b8414610ab9565b610c9a60049161074e610c528a8561072f565b91610c65339c8d809561072f565b61027d565b429081811015610cfb5750610c8c610c876020610c9294015163ffffffff1690565b610b05565b90610b2e565b9b8c9461072f565b61091e565b604051600091865af1610cb0610b73565b50610b92565b610cf6610cec610ce67f82212da536fe3b943b3415776c460d2341711988d155682ca703ed1a6ca94a6b93610726565b93610726565b9361053760405190565b0390a3565b9050610c8c610c876020610c9294015163ffffffff1690565b610d2f9161074e610c6092610d27600090565b50600461072f565b42111590565b6000198114610b3b5760010190565b6102b46101086101089290565b6101086101006108f0565b9061036690610135565b90826000939282370152565b90929192610d82610b6982610b40565b938185526020850190828401116100d7576100f292610d66565b610108913691610d72565b906103669061029c565b6101089051610135565b906001600160a01b0390610914565b90610dda61010861093592610726565b8254610dbb565b9160001960089290920291821b911b610914565b9190610e066101086109359361010b565b908354610de1565b6100f291600091610df5565b818110610e25575050565b80610e336000600193610e0e565b01610e1a565b9190601f8111610e4857505050565b610e5a6100f293600052602060002090565b906020601f840181900483019310610e7c575b6020601f909101040190610e1a565b9091508190610e6d565b9060001960089091021c191690565b81610e9f91610e86565b906002021790565b90610eb0815190565b906001600160401b03821161025057610ed382610ecd8554610161565b85610e39565b602090601f8311600114610f0157610935929160009183610ef6575b5050610e95565b015190503880610eef565b601f19831691610f1685600052602060002090565b9260005b818110610f5557509160029391856001969410610f3b575b50505002019055565b610f4b910151601f841690610e86565b9055388080610f32565b91936020600181928787015181550195019201610f1a565b906100f291610ea7565b9061092e6101086109359290565b9060ff90610914565b90610f9e61010861093592151590565b8254610f85565b610108905161029c565b90610100600160481b039060081b610914565b6102b46101086101089261029c565b90610fe161010861093592610fc2565b8254610faf565b90600160481b600160881b039060481b610914565b9061100d61010861093592610fc2565b8254610fe8565b9060ff60881b9060881b610914565b9061103361010861093592151590565b8254611014565b6100f291906110e79060e09060049061105c8161105687610db1565b90610dca565b6110746001820161106e602088015190565b90610f6d565b61108c60028201611086604088015190565b90610f77565b61109e6003820161098a606088015190565b01926110b66110b06080830151151590565b85610f8e565b6110cb6110c560a08301610fa5565b85610fd1565b6110e06110da60c08301610fa5565b85610ffd565b0151151590565b90611023565b906100f29161103a565b6111266100f29461111d606094989795611116608086019a6000870152565b6020850152565b15156040830152565b01906103c5565b939261114b61114461113f600061027d565b610d35565b600061091e565b611155600061027d565b946111da61116242610d44565b936111ca3396611189611116600192611179610d51565b956111848c88610d5c565b610d9c565b611194856040850152565b61119f866060850152565b88151560808401526111b48760a08501610da7565b6111c18760c08501610da7565b151560e0830152565b6111d5886002610118565b6110ed565b6112247f4ed610c3f1d2fb6cc19cc6edafbc427943267972f818d8b5163b2bc194c2deec9361121161120b8961010b565b96610726565b9661121b60405190565b948594856110f7565b0390a390565b1561123157565b60405162461bcd60e51b815260206004820152601760248201527621b0b63632b91034b9903737ba103a34329037bbb732b960491b6044820152606490fd5b1561127757565b60405162461bcd60e51b8152602060048201526013602482015272141bdcdd08191bd95cc81b9bdd08195e1a5cdd606a1b6044820152606490fd5b906100f29161130561130060046112fa8460026112f56112dd60006112d78585610118565b01610141565b6112ef6112e933610135565b91610135565b1461122a565b610118565b016102e5565b611270565b61131f565b9081526040810192916100f291602090611126565b61132842610d44565b9061135082600461134a8460026112f589826113448582610118565b01610f77565b01610ffd565b339161137f610ce67f7c776259a776af7bf4d366090dd3f39a64380e7e8bd476fbad1cdb46473cd28d9361010b565b93610cf661138c60405190565b9283928361130a565b906100f2916112b2565b6113a7610d51565b906000825260208080808080808089016060815201600081520160008152016000815201600081520160008152016000905250565b61010861139f565b906100f261148f60046113f5610d51565b9461140861140282610141565b87610d5c565b61141e61141760018301610255565b6020880152565b61143461142d6002830161027d565b6040880152565b61144a6114436003830161027d565b6060880152565b611461611458838301610292565b15156080880152565b61147861146f8383016102b9565b60a08801610da7565b6112fa6114868383016102cf565b60c08801610da7565b151560e0840152565b610108906113e4565b6114b8610108916114b06113dc565b506002610118565b611498565b905051906100f2826104ad565b906020828203126100d757610108916114bd565b9081526040810192916100f2916020019061035d565b6040513d6000823e3d90fd5b61150f61010860029283610118565b6004810161152361151f826102e5565b1590565b6116065761153090610292565b6115f5578061153e81610141565b61154a6112e986610135565b146115fd578361155c61156192610141565b610d14565b6115f5576020916115a761158d61158061157b6001610141565b610726565b92633e1fd0da940161027d565b926115b261159a60405190565b9687958694859460e01b90565b8452600484016114de565b03915afa9081156115f0576000916115c8575090565b610108915060203d81116115e9575b6115e1818361022f565b8101906114ca565b503d6115d7565b6114f4565b505050600190565b50505050600190565b5050505060009056fea2646970667358221220522389d321f085b6bbc7a7d536c296d1277a89be1a122a68203ca17713831cb764736f6c63430008140033",
  "linkReferences": {},
  "deployedLinkReferences": {}
}