{
  "_format": "hh-sol-artifact-1",
  "contractName": "DataVault",
  "sourceName": "contracts/DataVault.sol",
  "abi": [
    {
      "anonymous": false,
      "inputs": [
        {
          "indexed": true,
          "internalType": "bytes32",
          "name": "fileId",
          "type": "bytes32"
        },
        {
          "indexed": true,
          "internalType": "address",
          "name": "receiver",
          "type": "address"
        },
        {
          "indexed": false,
          "internalType": "string",
          "name": "encryptedKey",
          "type": "string"
        }
      ],
      "name": "AccessGranted",
      "type": "event"
    },
    {
      "anonymous": false,
      "inputs": [
        {
          "indexed": true,
          "internalType": "bytes32",
          "name": "fileId",
          "type": "bytes32"
        },
        {
          "indexed": true,
          "internalType": "address",
          "name": "receiver",
          "type": "address"
        }
      ],
      "name": "AccessRevoked",
      "type": "event"
    },
    {
      "anonymous": false,
      "inputs": [
        {
          "indexed": true,
          "internalType": "bytes32",
          "name": "fileId",
          "type": "bytes32"
        },
        {
          "indexed": true,
          "internalType": "address",
          "name": "receiver",
          "type": "address"
        },
        {
          "indexed": false,
          "internalType": "uint256",
          "name": "timestamp",
          "type": "uint256"
        }
      ],
      "name": "Accessed",
      "type": "event"
    },
    {
      "anonymous": false,
      "inputs": [
        {
          "indexed": true,
          "internalType": "bytes32",
          "name": "fileId",
          "type": "bytes32"
        },
        {
          "indexed": true,
          "internalType": "address",
          "name": "owner",
          "type": "address"
        },
        {
          "indexed": false,
          "internalType": "string",
          "name": "ipfsHash",
          "type": "string"
        },
        {
          "indexed": false,
          "internalType": "string",
          "name": "metaCid",
          "type": "string"
        }
      ],
      "name": "FileRegistered",
      "type": "event"
    },
    {
      "inputs": [
        {
          "internalType": "bytes32",
          "name": "fileId",
          "type": "bytes32"
        },
        {
          "internalType": "address",
          "name": "user",
          "type": "address"
        }
      ],
      "name": "checkAccess",
      "outputs": [
        {
          "internalType": "bool",
          "name": "",
          "type": "bool"
        }
      ],
      "stateMutability": "view",
      "type": "function"
    },
    {
      "inputs": [
        {
          "internalType": "bytes32",
          "name": "fileId",
          "type": "bytes32"
        },
        {
          "internalType": "uint256",
          "name": "start",
          "type": "uint256"
        },
        {
          "internalType": "uint256",
          "name": "limit",
          "type": "uint256"
        }
      ],
      "name": "getAccessHistory",
      "outputs": [
        {
          "internalType": "address[]",
          "name": "accessors",
          "type": "address[]"
        },
        {
          "internalType": "uint256[]",
          "name": "timestamps",
          "type": "uint256[]"
        }
      ],
      "stateMutability": "view",
      "type": "function"
    },
    {
      "inputs": [
        {
          "internalType": "bytes32",
          "name": "fileId",
          "type": "bytes32"
        }
      ],
      "name": "getAccessHistoryLength",
      "outputs": [
        {
          "internalType": "uint256",
          "name": "",
          "type": "uint256"
        }
      ],
      "stateMutability": "view",
      "type": "function"
    },
    {
      "inputs": [
        {
          "internalType": "bytes32",
          "name": "fileId",
          "type": "bytes32"
        },
        {
          "internalType": "address",
          "name": "requester",
          "type": "address"
        }
      ],
      "name": "getEncryptedKey",
      "outputs": [
        {
          "internalType": "string",
          "name": "",
          "type": "string"
        }
      ],
      "stateMutability": "view",
      "type": "function"
    },
    {
      "inputs": [
        {
          "internalType": "bytes32",
          "name": "fileId",
          "type": "bytes32"
        }
      ],
      "name": "getFile",
      "outputs": [
        {
          "internalType": "string",
          "name": "",
          "type": "string"
        }
      ],
      "stateMutability": "nonpayable",
      "type": "function"
    },
    {
      "inputs": [
        {
          "internalType": "bytes32",
          "name": "fileId",
          "type": "bytes32"
        }
      ],
      "name": "getFileInfo",
      "outputs": [
        {
          "internalType": "string",
          "name": "ipfsHash",
          "type": "string"
        },
        {
          "internalType": "string",
          "name": "metaCid",
          "type": "string"
        },
        {
          "internalType": "address",
          "name": "owner",
          "type": "address"
        },
        {
          "internalType": "uint256",
          "name": "createdAt",
          "type": "uint256"
        }
      ],
      "stateMutability": "view",
      "type": "function"
    },
    {
      "inputs": [
        {
          "internalType": "address",
          "name": "owner",
          "type": "address"
        },
        {
          "internalType": "uint256",
          "name": "start",
          "type": "uint256"
        },
        {
          "internalType": "uint256",
          "name": "limit",
          "type": "uint256"
        }
      ],
      "name": "getFilesByOwner",
      "outputs": [
        {
          "internalType": "bytes32[]",
          "name": "fileIds",
          "type": "bytes32[]"
        },
        {
          "internalType": "string[]",
          "name": "ipfsHashes",
          "type": "string[]"
        },
        {
          "internalType": "string[]",
          "name": "metaCids",
          "type": "string[]"
        },
        {
          "internalType": "uint256[]",
          "name": "createdAts",
          "type": "uint256[]"
        }
      ],
      "stateMutability": "view",
      "type": "function"
    },
    {
      "inputs": [
        {
          "internalType": "bytes32",
          "name": "fileId",
          "type": "bytes32"
        },
        {
          "internalType": "address",
          "name": "receiver",
          "type": "address"
        },
        {
          "internalType": "string",
          "name": "encryptedKey",
          "type": "string"
        }
      ],
      "name": "grantAccess",
      "outputs": [],
      "stateMutability": "nonpayable",
      "type": "function"
    },
    {
      "inputs": [
        {
          "internalType": "bytes32",
          "name": "fileId",
          "type": "bytes32"
        },
        {
          "internalType": "address",
          "name": "receiver",
          "type": "address"
        },
        {
          "internalType": "string",
          "name": "encryptedKey",
          "type": "string"
        },
        {
          "internalType": "address",
          "name": "fileOwner",
          "type": "address"
        }
      ],
      "name": "grantAccessByRegistry",
      "outputs": [],
      "stateMutability": "nonpayable",
      "type": "function"
    },
    {
      "inputs": [
        {
          "internalType": "bytes32",
          "name": "fileId",
          "type": "bytes32"
        },
        {
          "internalType": "string",
          "name": "ipfsHash",
          "type": "string"
        },
        {
          "internalType": "string",
          "name": "metaCid",
          "type": "string"
        }
      ],
      "name": "registerFile",
      "outputs": [],
      "stateMutability": "nonpayable",
      "type": "function"
    },
    {
      "inputs": [
        {
          "internalType": "bytes32",
          "name": "fileId",
          "type": "bytes32"
        },
        {
          "internalType": "address",
          "name": "receiver",
          "type": "address"
        }
      ],
      "name": "revokeAccess",
      "outputs": [],
      "stateMutability": "nonpayable",
      "type": "function"
    }
  ],
  "bytecode": "0x60806040523461001a57604051611643610020823961164390f35b600080fdfe6080604052600436101561001257600080fd5b60003560e01c80630e169119146100c25780633e1fd0da146100bd578063473aa2a5146100b85780634c0c1b31146100b357806352f7347b146100ae578063759270cd146100a95780637bbc67d7146100a45780638d53b2081461009f5780639a0a11961461009a578063a5afabf7146100955763f8469ff6036100c7576106ad565b61062b565b6105f9565b6104c7565b6104ab565b61047c565b610358565b6102f1565b610277565b6101c9565b61017d565b600080fd5b805b036100c757565b905035906100e2826100cc565b565b6001600160a01b031690565b90565b6100ce816100e4565b905035906100e2826100f3565b909182601f830112156100c7578135916001600160401b0383116100c75760200192600183028401116100c757565b916060838303126100c75761014d82846100d5565b9261015b83602083016100fc565b9260408201356001600160401b0381116100c7576101799201610109565b9091565b346100c757610199610190366004610138565b92919091610bd8565b604051005b0390f35b91906040838203126100c7576100f0906101bc81856100d5565b936020016100fc565b9052565b346100c75761019e6101e56101df3660046101a2565b90610f8e565b60405191829182901515815260200190565b906020828203126100c7576100f0916100d5565b60005b83811061021e5750506000910152565b818101518382015260200161020e565b61024f61025860209361026293610243815190565b80835293849260200190565b9586910161020b565b601f01601f191690565b0190565b60208082526100f09291019061022e565b346100c75761019e61029261028d3660046101f7565b611193565b60405191829182610266565b9190916080818403126100c7576102b583826100d5565b926102c381602084016100fc565b9260408301356001600160401b0381116100c7576102e6836100f0928601610109565b9390946060016100fc565b346100c75761019961030436600461029e565b93929092610cc3565b6101c5906100e4565b6103546103496100e29597969461033b6060956080860190868203600088015261022e565b90848203602086015261022e565b96604083019061030d565b0152565b346100c75761019e61037361036e3660046101f7565b6115c7565b9061038094929460405190565b94859485610316565b90916060828403126100c7576100f06103a284846100d5565b936103b081602086016100d5565b936040016100d5565b906102628160209361030d565b906103e66103df6103d5845190565b8084529260200190565b9260200190565b9060005b8181106103f75750505090565b90919261041161040a60019286516103b9565b9460200190565b9291016103ea565b906104286103df6103d5845190565b9060005b8181106104395750505090565b90919261044f61040a6001928651815260200190565b92910161042c565b60408082526100f093919261046e918401906103c6565b916020818403910152610419565b346100c75761049561048f366004610389565b916114e2565b9061019e6104a260405190565b92839283610457565b346100c75761019e6102926104c13660046101a2565b9061122d565b346100c7576101996104da3660046101a2565b90610eea565b90916060828403126100c7576100f06103a284846100fc565b906105086103df6103d5845190565b9060005b8181106105195750505090565b90919261052f61040a6001928651815260200190565b92910161050c565b906100f09161022e565b9061055761054d835190565b8083529160200190565b90816105696020830284019460200190565b926000915b83831061057d57505050505090565b909192939460206105a061059983856001950387528951610537565b9760200190565b930193019193929061056e565b926105dd6100f095936105cf6105eb94608088019088820360008a01526104f9565b908682036020880152610541565b908482036040860152610541565b916060818403910152610419565b346100c75761019e61061561060f3660046104e0565b91611359565b9061062294929460405190565b948594856105ad565b346100c75761019e6106466106413660046101f7565b6114c7565b6040515b9182918290815260200190565b6060818303126100c75761066b82826100d5565b9260208201356001600160401b0381116100c7578361068b918401610109565b909390929060408201356001600160401b0381116100c7576101799201610109565b346100c7576101996106c0366004610657565b93929092610a94565b905b600052602052604060002090565b6100f090546100e4565b6100e46100f06100f09290565b6100f0906106e3565b1561070057565b60405162461bcd60e51b815260206004820152601360248201527246696c6520616c72656164792065786973747360681b6044820152606490fd5b634e487b7160e01b600052600060045260246000fd5b634e487b7160e01b600052604160045260246000fd5b634e487b7160e01b600052602260045260246000fd5b906001600283049216801561079d575b602083101461079857565b610767565b91607f169161078d565b9160001960089290920291821b911b5b9181191691161790565b6100f06100f06100f09290565b91906107df6100f06107e7936107c1565b9083546107a7565b9055565b6100e2916000916107ce565b818110610802575050565b8061081060006001936107eb565b016107f7565b9190601f811161082557505050565b6108376100e293600052602060002090565b906020601f84018190048301931061085a575b6020601f909101045b01906107f7565b909150819061084a565b9060001960089091021c191690565b8161087d91610864565b906002021790565b91906001600160401b038211610942576108a9826108a3855461077d565b85610816565b600090601f83116001146108d7576107e79291600091836108cc575b5050610873565b0135905038806108c5565b601f198316916108ec85600052602060002090565b92815b81811061092a57509160029391856001969410610910575b50505002019055565b610920910135601f841690610864565b9055388080610907565b919360206001819287870135815501950192016108ef565b610751565b906100e29291610885565b906001600160a01b03906107b7565b6100f0906100e4906001600160a01b031682565b6100f090610961565b6100f090610975565b906109976100f06107e79261097e565b8254610952565b90600019906107b7565b906109b86100f06107e7926107c1565b825461099e565b906106cb9061097e565b634e487b7160e01b600052603260045260246000fd5b8054821015610a02576109f9600191600052602060002090565b91020190600090565b6109c9565b91906107df6100f06107e79390565b80549190600160401b8310156109425782610a399160016100e2950181556109df565b90610a07565b90826000939282370152565b919061025881610a62816102629560209181520190565b8095610a3f565b9290610a86906100f0959360408601918683036000880152610a4b565b926020818503910152610a4b565b9190939293610b6a600094610b0f610aaf6100f087896106c9565b610aec8686600284019a610ae5610ac58d6106d9565b610adf610ad9610ad4856106f0565b6100e4565b916100e4565b146106f9565b8401610947565b610afa838a60018401610947565b610b05338099610987565b60034291016109a8565b610b2685610b216100f08960036109bf565b610a16565b610b57610b517faa0f2661e64967e77af4a43c2aecca8209a9f6c68944c4243f95461fadab82959690565b9661097e565b96610b6160405190565b94859485610a69565b0390a3565b15610b7657565b60405162461bcd60e51b81526020600482015260096024820152682737ba1037bbb732b960b91b6044820152606490fd5b9060ff906107b7565b90610bc06100f06107e792151590565b8254610ba7565b60208082526100f093910191610a4b565b909192610c09610bf76002610bf16100f08660006106c9565b016106d9565b610c03610ad9336100e4565b14610b6f565b610c266001610c2185610c1c86846106c9565b6109bf565b610bb0565b610c3f8185610c3a86610c1c8760026106c9565b610947565b610c70610c6a7fa267c14363a987bca73845fc933d871e1e10068bd40c641db12b39c45d3a87fe9390565b9361097e565b93610b6a610c7d60405190565b92839283610bc7565b15610c8d57565b60405162461bcd60e51b815260206004820152600e60248201526d2737ba103334b6329037bbb732b960911b6044820152606490fd5b9193610c0990939193610ceb610ad9610ce56002610bf16100f08960006106c9565b926100e4565b14610c86565b15610cf857565b60405162461bcd60e51b81526020600482015260126024820152711058d8d95cdcc81b9bdd0819dc985b9d195960721b6044820152606490fd5b90610d4590600019906020036008021c90565b8154169055565b90600091610d6a610d6282600052602060002090565b928354610873565b905555565b9192906020821015610dc757601f8411600114610d91576107e7929350610873565b5090610dc26100e2936001610db9610dae85600052602060002090565b92601f602091010490565b820191016107f7565b610d4c565b50610e008293610dde600194600052602060002090565b6108536020601f860104820192601f861680610e08575b50601f602091010490565b600202179055565b610e1490888603610d32565b38610df5565b929091600160401b82116109425760201115610e61576020811015610e42576107e791610873565b60019160ff1916610e5884600052602060002090565b55600202019055565b60019150600202019055565b908154610e798161077d565b90818311610ea2575b818310610e90575b50505050565b610e9993610d6f565b38808080610e8a565b610eae83838387610e1a565b610e82565b634e487b7160e01b600052601160045260246000fd5b60006100e291610e6d565b90600003610ee5576100e290610ec9565b61073b565b90610f4c6000610f05610bf76002610bf16100f088866106c9565b610f3881610c2185610c1c886001610f33610f2e610f2786610c1c86866106c9565b5460ff1690565b610cf1565b6106c9565b610f4783610c1c8660026106c9565b610ed4565b610f7d610f777fe7906b77ea165c70ad8268ce5b59b778a198edf9c1ae4118378eefdc76fce5f49390565b9161097e565b91610f8760405190565b8080610b6a565b610fa16002610bf16100f08460006106c9565b610fad610ad9846100e4565b14610fc4576100f091610c1c610f279260016106c9565b5050600190565b15610fd257565b60405162461bcd60e51b815260206004820152600d60248201526c1058d8d95cdcc819195b9a5959609a1b6044820152606490fd5b90601f01601f191681019081106001600160401b0382111761094257604052565b906100e261103560405190565b9283611007565b6100f06040611028565b906101c5906100e4565b8054821015610a02576109f9600291600052602060002090565b6100f090516100e4565b6100e2919061109d90602090600190611096816110908761106a565b90610987565b0192015190565b906109a8565b9190610ee5576100e291611074565b80549190600160401b83101561094257826110d59160016100e295018155611050565b906110a3565b805460009392916110f86110ee8361077d565b8085529360200190565b916001811690811561114a575060011461111157505050565b6111249192939450600052602060002090565b916000925b8184106111365750500190565b805484840152602090930192600101611129565b92949550505060ff1916825215156020020190565b906100f0916110db565b906100e26111839261117a60405190565b9384809261115f565b0383611007565b6100f090611169565b6100f090336111aa6111a58284610f8e565b610fcb565b6111b86100f08360046106c9565b906111e142926111c661103c565b906111d18483611046565b6111dc856020840152565b6110b2565b7fdcede8f51a5bf4c496677e29d7c49b7849025b86474ded6af867784f9ff0330d61121861120e85610c6a565b9361064a60405190565b0390a3611227600091826106c9565b0161118a565b6100f091610c1c61125592611240606090565b5061124e6111a53383610f8e565b60026106c9565b61118a565b6001600160401b0381116109425760208091020190565b9061128361127e8361125a565b611028565b918252565b369037565b906100e26112a361129d84611271565b9361125a565b601f190160208401611288565b60005b8281106112bf57505050565b6060828201526020016112b3565b906100e26112dd61129d84611271565b601f1901602084016112b0565b919082018092116112f757565b610eb3565b919082039182116112f757565b60001981146112f75760010190565b6100f0916008021c81565b906100f09154611318565b90611337825190565b811015610a02576020809102010190565b6100f09081565b6100f09054611348565b6113686100f0600392836109bf565b92611371845490565b908184101561148c57611398916113898592836112ea565b90808211611484575b506112fc565b926113a28461128d565b906113ac856112cd565b956113b6866112cd565b916113c08761128d565b956000926113cd846107c1565b8a8a5b82101561147557816114698b611435836114638e8e61145c8f9a8f9b8f8f61146e9d6113d09f61143f9061143861141e61141861144f976114128b80996112ea565b906109df565b90611323565b6114358661142f6100f084876106c9565b9c61132e565b52565b880161118a565b611449838361132e565b5261132e565b5061143f6001850161118a565b500161134f565b9261132e565b611309565b90506113cd565b50509550505050935093929190565b905038611392565b505050505061149b60006107c1565b6114a48161128d565b6114ad826112cd565b926114c06114ba846112cd565b9361128d565b9193929190565b6114de6100f0916114d6600090565b5060046106c9565b5490565b6100f06114f4919392936114d6606090565b906114fd825490565b90818410156115a657611515916113898592836112ea565b9161151f8361128d565b6115288461128d565b94600090611535826107c1565b865b81101561159b57611594816115756115668661155f611559611537978c6112ea565b8c611050565b50016106d9565b611570838961132e565b611046565b61146961158a600161145c611559858c6112ea565b611435838d61132e565b9050611535565b509450509150509190565b505050506115b460006107c1565b906100f06115c18361128d565b9261128d565b6115d66100f0600092836106c9565b90810160018201926116086116026115fc60036115f5600288016106d9565b960161134f565b9361118a565b9461118a565b92919056fea2646970667358221220ef28cdaacd9478ffdc3bd14ae89d9904acf94d1640c393acd63eac4d15fe0de964736f6c63430008140033",
  "linkReferences": {},
  "deployedLinkReferences": {}
}