{
  "_format": "hh-sol-artifact-1",
  "contractName": "PostRegistry",
  "sourceName": "contracts/PostRegistry.sol",
  "abi": [
    {
      "inputs": [
        {
          "internalType": "address",
          "name": "dataVaultAddress",
          "type": "address"
        }
      ],
      "stateMutability": "nonpayable",
      "type": "constructor"
    },
    {
      "anonymous": false,
      "inputs": [
        {
          "indexed": true,
          "internalType": "uint256",
          "name": "postId",
          "type": "uint256"
        },
        {
          "indexed": true,
          "internalType": "address",
          "name": "requester",
          "type": "address"
        },
        {
          "indexed": false,
          "internalType": "uint256",
          "name": "amount",
          "type": "uint256"
        },
        {
          "indexed": false,
          "internalType": "uint256",
          "name": "timestamp",
          "type": "uint256"
        }
      ],
      "name": "AccessRequested",
      "type": "event"
    },
    {
      "anonymous": false,
      "inputs": [
        {
          "indexed": true,
          "internalType": "address",
          "name": "creator",
          "type": "address"
        },
        {
          "indexed": false,
          "internalType": "uint256",
          "name": "price",
          "type": "uint256"
        },
        {
          "indexed": false,
          "internalType": "uint32",
          "name": "duration",
          "type": "uint32"
        }
      ],
      "name": "CreatorUpdated",
      "type": "event"
    },
    {
      "anonymous": false,
      "inputs": [
        {
          "indexed": true,
          "internalType": "address",
          "name": "creator",
          "type": "address"
        },
        {
          "indexed": true,
          "internalType": "address",
          "name": "subscriber",
          "type": "address"
        },
        {
          "indexed": false,
          "internalType": "uint256",
          "name": "expiresAt",
          "type": "uint256"
        }
      ],
      "name": "NewSubscription",
      "type": "event"
    },
    {
      "anonymous": false,
      "inputs": [
        {
          "indexed": true,
          "internalType": "uint256",
          "name": "postId",
          "type": "uint256"
        },
        {
          "indexed": true,
          "internalType": "address",
          "name": "owner",
          "type": "address"
        },
        {
          "indexed": false,
          "internalType": "bytes32",
          "name": "fileId",
          "type": "bytes32"
        },
        {
          "indexed": false,
          "internalType": "uint256",
          "name": "price",
          "type": "uint256"
        },
        {
          "indexed": false,
          "internalType": "bool",
          "name": "isPublic",
          "type": "bool"
        },
        {
          "indexed": false,
          "internalType": "uint64",
          "name": "createdAt",
          "type": "uint64"
        }
      ],
      "name": "PostCreated",
      "type": "event"
    },
    {
      "anonymous": false,
      "inputs": [
        {
          "indexed": true,
          "internalType": "uint256",
          "name": "postId",
          "type": "uint256"
        },
        {
          "indexed": true,
          "internalType": "address",
          "name": "owner",
          "type": "address"
        },
        {
          "indexed": false,
          "internalType": "bytes32",
          "name": "fileId",
          "type": "bytes32"
        },
        {
          "indexed": false,
          "internalType": "uint64",
          "name": "updatedAt",
          "type": "uint64"
        }
      ],
      "name": "PostUpdated",
      "type": "event"
    },
    {
      "inputs": [
        {
          "internalType": "uint256",
          "name": "postId",
          "type": "uint256"
        },
        {
          "internalType": "address",
          "name": "user",
          "type": "address"
        }
      ],
      "name": "canUserAccessPost",
      "outputs": [
        {
          "internalType": "bool",
          "name": "",
          "type": "bool"
        }
      ],
      "stateMutability": "view",
      "type": "function"
    },
    {
      "inputs": [
        {
          "internalType": "bytes32",
          "name": "fileId",
          "type": "bytes32"
        },
        {
          "internalType": "string",
          "name": "description",
          "type": "string"
        },
        {
          "internalType": "uint256",
          "name": "price",
          "type": "uint256"
        },
        {
          "internalType": "bool",
          "name": "isPublic",
          "type": "bool"
        }
      ],
      "name": "createPost",
      "outputs": [
        {
          "internalType": "uint256",
          "name": "",
          "type": "uint256"
        }
      ],
      "stateMutability": "nonpayable",
      "type": "function"
    },
    {
      "inputs": [
        {
          "internalType": "address",
          "name": "",
          "type": "address"
        }
      ],
      "name": "creators",
      "outputs": [
        {
          "internalType": "uint256",
          "name": "subscriptionPrice",
          "type": "uint256"
        },
        {
          "internalType": "uint32",
          "name": "subscriptionDuration",
          "type": "uint32"
        }
      ],
      "stateMutability": "view",
      "type": "function"
    },
    {
      "inputs": [],
      "name": "dataVault",
      "outputs": [
        {
          "internalType": "contract IDataVault",
          "name": "",
          "type": "address"
        }
      ],
      "stateMutability": "view",
      "type": "function"
    },
    {
      "inputs": [
        {
          "internalType": "uint256",
          "name": "postId",
          "type": "uint256"
        }
      ],
      "name": "getPost",
      "outputs": [
        {
          "components": [
            {
              "internalType": "address",
              "name": "owner",
              "type": "address"
            },
            {
              "internalType": "string",
              "name": "description",
              "type": "string"
            },
            {
              "internalType": "bytes32",
              "name": "fileId",
              "type": "bytes32"
            },
            {
              "internalType": "uint256",
              "name": "price",
              "type": "uint256"
            },
            {
              "internalType": "bool",
              "name": "isPublic",
              "type": "bool"
            },
            {
              "internalType": "uint64",
              "name": "createdAt",
              "type": "uint64"
            },
            {
              "internalType": "uint64",
              "name": "updatedAt",
              "type": "uint64"
            },
            {
              "internalType": "bool",
              "name": "exists",
              "type": "bool"
            }
          ],
          "internalType": "struct PostRegistry.Post",
          "name": "",
          "type": "tuple"
        }
      ],
      "stateMutability": "view",
      "type": "function"
    },
    {
      "inputs": [
        {
          "internalType": "address",
          "name": "creator",
          "type": "address"
        },
        {
          "internalType": "address",
          "name": "user",
          "type": "address"
        }
      ],
      "name": "isSubscribed",
      "outputs": [
        {
          "internalType": "bool",
          "name": "",
          "type": "bool"
        }
      ],
      "stateMutability": "view",
      "type": "function"
    },
    {
      "inputs": [],
      "name": "nextPostId",
      "outputs": [
        {
          "internalType": "uint256",
          "name": "",
          "type": "uint256"
        }
      ],
      "stateMutability": "view",
      "type": "function"
    },
    {
      "inputs": [
        {
          "internalType": "uint256",
          "name": "postId",
          "type": "uint256"
        },
        {
          "internalType": "string",
          "name": "encryptedKey",
          "type": "string"
        }
      ],
      "name": "payAndGrantAccess",
      "outputs": [],
      "stateMutability": "payable",
      "type": "function"
    },
    {
      "inputs": [
        {
          "internalType": "uint256",
          "name": "",
          "type": "uint256"
        }
      ],
      "name": "posts",
      "outputs": [
        {
          "internalType": "address",
          "name": "owner",
          "type": "address"
        },
        {
          "internalType": "string",
          "name": "description",
          "type": "string"
        },
        {
          "internalType": "bytes32",
          "name": "fileId",
          "type": "bytes32"
        },
        {
          "internalType": "uint256",
          "name": "price",
          "type": "uint256"
        },
        {
          "internalType": "bool",
          "name": "isPublic",
          "type": "bool"
        },
        {
          "internalType": "uint64",
          "name": "createdAt",
          "type": "uint64"
        },
        {
          "internalType": "uint64",
          "name": "updatedAt",
          "type": "uint64"
        },
        {
          "internalType": "bool",
          "name": "exists",
          "type": "bool"
        }
      ],
      "stateMutability": "view",
      "type": "function"
    },
    {
      "inputs": [
        {
          "internalType": "uint256",
          "name": "price",
          "type": "uint256"
        },
        {
          "internalType": "uint32",
          "name": "duration",
          "type": "uint32"
        }
      ],
      "name": "setSubscriptionDetails",
      "outputs": [],
      "stateMutability": "nonpayable",
      "type": "function"
    },
    {
      "inputs": [
        {
          "internalType": "address",
          "name": "creator",
          "type": "address"
        }
      ],
      "name": "subscribe",
      "outputs": [],
      "stateMutability": "payable",
      "type": "function"
    },
    {
      "inputs": [
        {
          "internalType": "address",
          "name": "",
          "type": "address"
        },
        {
          "internalType": "address",
          "name": "",
          "type": "address"
        }
      ],
      "name": "subscriptions",
      "outputs": [
        {
          "internalType": "uint256",
          "name": "",
          "type": "uint256"
        }
      ],
      "stateMutability": "view",
      "type": "function"
    },
    {
      "inputs": [
        {
          "internalType": "uint256",
          "name": "postId",
          "type": "uint256"
        },
        {
          "internalType": "bytes32",
          "name": "newFileId",
          "type": "bytes32"
        }
      ],
      "name": "updatePostContent",
      "outputs": [],
      "stateMutability": "nonpayable",
      "type": "function"
    }
  ],
  "bytecode": "0x60806040523462000030576200001e62000018620000d4565b62000157565b604051611a516200016f8239611a5190f35b600080fd5b634e487b7160e01b600052604160045260246000fd5b90601f01601f191681019081106001600160401b038211176200006d57604052565b62000035565b906200008a6200008260405190565b92836200004b565b565b6001600160a01b031690565b90565b620000a6816200008c565b036200003057565b905051906200008a826200009b565b9060208282031262000030576200009891620000ae565b6200009862001bc080380380620000eb8162000073565b928339810190620000bd565b62000098906200008c906001600160a01b031682565b6200009890620000f7565b62000098906200010d565b906200013762000098620001539262000118565b82546001600160a01b0319166001600160a01b03919091161790565b9055565b620001666200008a9162000118565b60016200012356fe6080604052600436101561001257600080fd5b60003560e01c80630b1e7f83146100e257806337695715146100dd57806340731c24146100d857806341a7726a146100d357806355ddb5f7146100ce5780635c09bd98146100c95780636207d31b146100c45780636bdc7727146100bf5780637f9c73a2146100ba578063933166e1146100b55780639af9226d146100b0578063b4eb1964146100ab5763f6416ef6036100e757610931565b61090a565b61089f565b610846565b6107f9565b6107a7565b610768565b6106db565b610696565b610642565b6105f1565b610524565b610453565b600080fd5b805b036100e757565b90503590610102826100ec565b565b906020828203126100e757610118916100f5565b90565b6101186101186101189290565b906101329061011b565b600052602052604060002090565b610118905b6001600160a01b031690565b6101189054610140565b634e487b7160e01b600052602260045260246000fd5b9060016002830492168015610191575b602083101461018c57565b61015b565b91607f1691610181565b805460009392916101b86101ae83610171565b8085529360200190565b916001811690811561020a57506001146101d157505050565b6101e49192939450600052602060002090565b916000925b8184106101f65750500190565b8054848401526020909301926001016101e9565b92949550505060ff1916825215156020020190565b906101189161019b565b634e487b7160e01b600052604160045260246000fd5b90601f01601f191681019081106001600160401b0382111761026057604052565b610229565b9061010261027f9261027660405190565b9384809261021f565b038361023f565b6101189081565b6101189054610286565b610118905b60ff1690565b6101189054610297565b6001600160401b031690565b6101189060081c6102ac565b6102ac565b61011890546102b8565b6101189060481c6102ac565b61011890546102d3565b6101189060881c61029c565b61011890546102e9565b61030a906002610128565b9061031482610151565b9161032160018201610265565b9161032e6002830161028d565b9161033b6003820161028d565b91610348600483016102a2565b91610355600482016102c9565b9161011860046103668185016102df565b93016102f5565b61037690610145565b9052565b60005b83811061038d5750506000910152565b818101518382015260200161037d565b6103be6103c76020936103d1936103b2815190565b80835293849260200190565b9586910161037a565b601f01601f191690565b0190565b610376906102ac565b939561043760e09661042e61044b969c9b9961042761041f8a6101029e996104126104419a6000610100850194019061036d565b8c820360208e015261039d565b9e60408b0152565b6060890152565b15156080870152565b60a08501906103d5565b60c08301906103d5565b019015159052565b346100e75761048a61046e610469366004610104565b6102ff565b9461048198969894919493929360405190565b988998896103de565b0390f35b909182601f830112156100e7578135916001600160401b0383116100e75760200192600183028401116100e757565b8015156100ee565b90503590610102826104bd565b916080838303126100e7576104e782846100f5565b926020810135916001600160401b0383116100e75761050b8461011894840161048e565b93909461051b81604086016100f5565b936060016104c5565b346100e75761048a61054361053a3660046104d2565b9392909261118a565b6040515b9182918290815260200190565b906101189060e08061058861010084016105766000880151600087019061036d565b6020870151858203602087015261039d565b9461059860408201516040860152565b6105a760608201516060860152565b6080818101511515908501526105c560a082015160a08601906103d5565b6105d760c082015160c08601906103d5565b01511515910152565b602080825261011892910190610554565b346100e75761048a61060c610607366004610104565b6114fe565b604051918291826105e0565b6100ee81610145565b9050359061010282610618565b906020828203126100e75761011891610621565b61065561065036600461062e565b610c45565b604051005b63ffffffff81166100ee565b905035906101028261065a565b91906040838203126100e7576101189061068d81856100f5565b93602001610666565b346100e7576106556106a9366004610673565b90610a0a565b60009103126100e757565b610118916008021c81565b9061011891546106ba565b6101186000806106c5565b346100e7576106eb3660046106af565b61048a6105436106d0565b91906040838203126100e757610118906107108185610621565b93602001610621565b61011890610145906001600160a01b031682565b61011890610719565b6101189061072d565b9061013290610736565b6107636101189261075e60049360009461073f565b61073f565b6106c5565b346100e75761048a61054361077e3660046106f6565b90610749565b91906040838203126100e7576101189061079e81856100f5565b936020016100f5565b346100e7576106556107ba366004610784565b906113f2565b9190916040818403126100e7576107d783826100f5565b9260208201356001600160401b0381116100e7576107f5920161048e565b9091565b6106556108073660046107c0565b91611867565b610118905b63ffffffff1690565b610118905461080d565b61083090600361073f565b90610118600161083f8461028d565b930161081b565b346100e75761085e61085936600461062e565b610825565b9061048a61086b60405190565b9283928390815263ffffffff909116602082015260400190565b91906040838203126100e7576101189061071081856100f5565b346100e75761048a6108bb6108b5366004610885565b9061155d565b60405191829182901515815260200190565b610118916008021c610145565b9061011891546108cd565b610118600060016108da565b61037690610736565b60208101929161010291906108f1565b346100e75761091a3660046106af565b61048a6109256108e5565b604051918291826108fa565b346100e75761048a6108bb6109473660046106f6565b90610d71565b9061010261095a60405190565b928361023f565b610118604061094d565b90600019905b9181191691161790565b9061098b6101186109929261011b565b825461096b565b9055565b9063ffffffff90610971565b6108126101186101189263ffffffff1690565b906109c5610118610992926109a2565b8254610996565b61010291906109fa906020906001906109ed816109e7875190565b9061097b565b0192015163ffffffff1690565b906109b5565b90610102916109cc565b90610a13610961565b90610a1c838352565b63ffffffff81166020830152610a3e600392610a3933809561073f565b610a00565b610a687f9a33df247890922ff8d64909248cdfb1b0208a39260bc945fb190c8214d2a36c92610736565b92610a7561086b60405190565b0390a2565b90610102610aa26001610a8b610961565b94610a9c610a988261028d565b8752565b0161081b565b63ffffffff166020840152565b61011890610a7a565b15610abf57565b60405162461bcd60e51b815260206004820152602960248201527f546869732063726561746f7220646f6573206e6f74206f6666657220737562736044820152686372697074696f6e7360b81b6064820152608490fd5b15610b1d57565b60405162461bcd60e51b815260206004820152601f60248201527f496e636f727265637420737562736372697074696f6e206665652070616964006044820152606490fd5b6101186101186101189263ffffffff1690565b634e487b7160e01b600052601160045260246000fd5b91908201809211610b9857565b610b75565b6001600160401b03811161026057602090601f01601f19160190565b90610bcb610bc683610b9d565b61094d565b918252565b3d15610bea57610bdf3d610bb9565b903d6000602084013e565b606090565b15610bf657565b60405162461bcd60e51b815260206004820152602160248201527f4661696c656420746f2073656e64207061796d656e7420746f2063726561746f6044820152603960f91b6064820152608490fd5b610cbd81610d13610c80610c62610c5d84600361073f565b610aaf565b8051906000928392610c7a610c768561011b565b9190565b11610ab8565b610cfc3491610c9c610c956101188684015190565b8414610b16565b610cf760049161075e610caf8a8561073f565b91610cc2339c8d809561073f565b61028d565b429081811015610d585750610ce9610ce46020610cef94015163ffffffff1690565b610b62565b90610b8b565b9b8c9461073f565b61097b565b604051600091865af1610d0d610bd0565b50610bef565b610d53610d49610d437f82212da536fe3b943b3415776c460d2341711988d155682ca703ed1a6ca94a6b93610736565b93610736565b9361054760405190565b0390a3565b9050610ce9610ce46020610cef94015163ffffffff1690565b610d8c9161075e610cbd92610d84600090565b50600461073f565b42111590565b6000198114610b985760010190565b6102c46101186101189290565b61011861010061094d565b9061037690610145565b90826000939282370152565b90929192610ddf610bc682610b9d565b938185526020850190828401116100e75761010292610dc3565b610118913691610dcf565b90610376906102ac565b6101189051610145565b906001600160a01b0390610971565b90610e3761011861099292610736565b8254610e18565b9160001960089290920291821b911b610971565b9190610e636101186109929361011b565b908354610e3e565b61010291600091610e52565b818110610e82575050565b80610e906000600193610e6b565b01610e77565b9190601f8111610ea557505050565b610eb761010293600052602060002090565b906020601f840181900483019310610ed9575b6020601f909101040190610e77565b9091508190610eca565b9060001960089091021c191690565b81610efc91610ee3565b906002021790565b90610f0d815190565b906001600160401b03821161026057610f3082610f2a8554610171565b85610e96565b602090601f8311600114610f5e57610992929160009183610f53575b5050610ef2565b015190503880610f4c565b601f19831691610f7385600052602060002090565b9260005b818110610fb257509160029391856001969410610f98575b50505002019055565b610fa8910151601f841690610ee3565b9055388080610f8f565b91936020600181928787015181550195019201610f77565b9061010291610f04565b9061098b6101186109929290565b9060ff90610971565b90610ffb61011861099292151590565b8254610fe2565b61011890516102ac565b90610100600160481b039060081b610971565b6102c4610118610118926102ac565b9061103e6101186109929261101f565b825461100c565b90600160481b600160881b039060481b610971565b9061106a6101186109929261101f565b8254611045565b9060ff60881b9060881b610971565b9061109061011861099292151590565b8254611071565b61010291906111449060e0906004906110b9816110b387610e0e565b90610e27565b6110d1600182016110cb602088015190565b90610fca565b6110e9600282016110e3604088015190565b90610fd4565b6110fb600382016109e7606088015190565b019261111361110d6080830151151590565b85610feb565b61112861112260a08301611002565b8561102e565b61113d61113760c08301611002565b8561105a565b0151151590565b90611080565b9061010291611097565b6111836101029461117a606094989795611173608086019a6000870152565b6020850152565b15156040830152565b01906103d5565b93926111a86111a161119c600061028d565b610d92565b600061097b565b6111b2600061028d565b946112376111bf42610da1565b9361122733966111e66111736001926111d6610dae565b956111e18c88610db9565b610df9565b6111f1856040850152565b6111fc866060850152565b88151560808401526112118760a08501610e04565b61121e8760c08501610e04565b151560e0830152565b611232886002610128565b61114a565b6112817f4ed610c3f1d2fb6cc19cc6edafbc427943267972f818d8b5163b2bc194c2deec9361126e6112688961011b565b96610736565b9661127860405190565b94859485611154565b0390a390565b1561128e57565b60405162461bcd60e51b815260206004820152601760248201527621b0b63632b91034b9903737ba103a34329037bbb732b960491b6044820152606490fd5b156112d457565b60405162461bcd60e51b8152602060048201526013602482015272141bdcdd08191bd95cc81b9bdd08195e1a5cdd606a1b6044820152606490fd5b906101029161136261135d600461135784600261135261133a60006113348585610128565b01610151565b61134c61134633610145565b91610145565b14611287565b610128565b016102f5565b6112cd565b61137c565b90815260408101929161010291602090611183565b61138542610da1565b906113ad8260046113a784600261135289826113a18582610128565b01610fd4565b0161105a565b33916113dc610d437f7c776259a776af7bf4d366090dd3f39a64380e7e8bd476fbad1cdb46473cd28d9361011b565b93610d536113e960405190565b92839283611367565b906101029161130f565b611404610dae565b906000825260208080808080808089016060815201600081520160008152016000815201600081520160008152016000905250565b6101186113fc565b906101026114ec6004611452610dae565b9461146561145f82610151565b87610db9565b61147b61147460018301610265565b6020880152565b61149161148a6002830161028d565b6040880152565b6114a76114a06003830161028d565b6060880152565b6114be6114b58383016102a2565b15156080880152565b6114d56114cc8383016102c9565b60a08801610e04565b6113576114e38383016102df565b60c08801610e04565b151560e0840152565b61011890611441565b6115156101189161150d611439565b506002610128565b6114f5565b90505190610102826104bd565b906020828203126100e7576101189161151a565b908152604081019291610102916020019061036d565b6040513d6000823e3d90fd5b61156c61011860029283610128565b6004810161158061157c826102f5565b1590565b6116635761158d906102a2565b611652578061159b81610151565b6115a761134686610145565b1461165a57836115b96115be92610151565b610d71565b611652576020916116046115ea6115dd6115d86001610151565b610736565b92633e1fd0da940161028d565b9261160f6115f760405190565b9687958694859460e01b90565b84526004840161153b565b03915afa90811561164d57600091611625575090565b610118915060203d8111611646575b61163e818361023f565b810190611527565b503d611634565b611551565b505050600190565b50505050600190565b50505050600090565b1561167357565b60405162461bcd60e51b815260206004820152600e60248201526d506f7374206973207075626c696360901b6044820152606490fd5b156116b057565b60405162461bcd60e51b81526020600482015260116024820152704f776e657220646f65736e27742070617960781b6044820152606490fd5b156116f057565b60405162461bcd60e51b8152602060048201526012602482015271416c7265616479206861732061636365737360701b6044820152606490fd5b1561173157565b60405162461bcd60e51b815260206004820152601060248201526f141bdcdd081a5cc81b9bdd081c185a5960821b6044820152606490fd5b1561177057565b60405162461bcd60e51b8152602060048201526018602482015277125b98dbdc9c9958dd081c185e5b595b9d08185b5bdd5b9d60421b6044820152606490fd5b156117b757565b60405162461bcd60e51b815260206004820152601760248201527614185e5b595b9d081d1c985b9cd9995c8819985a5b1959604a1b6044820152606490fd5b91906103c78161180d816103d19560209181520190565b8095610dc3565b959492906101029461184c9261183f60609561183560808c019560008d0152565b60208b019061036d565b88830360408a01526117f6565b94019061036d565b9081526040810192916101029160200152565b60026118766101188383610128565b61189961189461157c6004840161188f61135d826102f5565b6102a2565b61166c565b33936118bf6118af6118aa84610151565b610145565b6118b887610145565b14156116a9565b6118d46118cf61157c878761155d565b6116e9565b60038201956118e28761028d565b936118fb6000956118f5610c768861011b565b1161172a565b61191261190b610118349a61028d565b8914611769565b8484019161193c868061192486610151565b6040516000918e905af1611936610bd0565b506117b0565b61196261195c61194f6115d86001610151565b93634c0c1b31970161028d565b93610151565b90823b156100e757889561199961198e93899793889461198160405190565b9a8b998a98899760e01b90565b875260048701611814565b03925af1801561164d576119ee575b5050426119d8610d437fb3b0cc2d7d76703122872039bf5ae2189a7f32e1c9a9f8a9cf2cac16e2edcce59361011b565b93610d536119e560405190565b92839283611854565b81611a0d92903d10611a14575b611a05818361023f565b8101906106af565b38806119a8565b503d6119fb56fea264697066735822122090b12b407eed89f88dfcbb8c5b6ab78430a39fde7f685e9e5e5f1468acb1596b64736f6c63430008140033",
  "linkReferences": {},
  "deployedLinkReferences": {}
}